{
  "contractName": "P2PLoan",
  "abi": [
    {
      "inputs": [
        {
          "internalType": "uint256",
          "name": "",
          "type": "uint256"
        }
      ],
      "name": "loans",
      "outputs": [
        {
          "internalType": "uint256",
          "name": "id",
          "type": "uint256"
        },
        {
          "internalType": "address payable",
          "name": "borrower",
          "type": "address"
        },
        {
          "internalType": "address payable",
          "name": "lender",
          "type": "address"
        },
        {
          "internalType": "uint256",
          "name": "principal",
          "type": "uint256"
        },
        {
          "internalType": "uint256",
          "name": "collateralAmount",
          "type": "uint256"
        },
        {
          "internalType": "uint256",
          "name": "interestRate",
          "type": "uint256"
        },
        {
          "internalType": "uint256",
          "name": "totalRepayment",
          "type": "uint256"
        },
        {
          "internalType": "uint256",
          "name": "termEnd",
          "type": "uint256"
        },
        {
          "internalType": "enum P2PLoan.LoanStatus",
          "name": "status",
          "type": "uint8"
        }
      ],
      "stateMutability": "view",
      "type": "function",
      "constant": true
    },
    {
      "inputs": [],
      "name": "nextLoanId",
      "outputs": [
        {
          "internalType": "uint256",
          "name": "",
          "type": "uint256"
        }
      ],
      "stateMutability": "view",
      "type": "function",
      "constant": true
    },
    {
      "inputs": [
        {
          "internalType": "uint256",
          "name": "_principal",
          "type": "uint256"
        },
        {
          "internalType": "uint256",
          "name": "_interestRate",
          "type": "uint256"
        }
      ],
      "name": "requestLoan",
      "outputs": [
        {
          "internalType": "uint256",
          "name": "",
          "type": "uint256"
        }
      ],
      "stateMutability": "payable",
      "type": "function",
      "payable": true
    },
    {
      "inputs": [
        {
          "internalType": "uint256",
          "name": "_loanId",
          "type": "uint256"
        }
      ],
      "name": "fundLoan",
      "outputs": [],
      "stateMutability": "payable",
      "type": "function",
      "payable": true
    },
    {
      "inputs": [
        {
          "internalType": "uint256",
          "name": "_loanId",
          "type": "uint256"
        }
      ],
      "name": "repayLoan",
      "outputs": [],
      "stateMutability": "payable",
      "type": "function",
      "payable": true
    },
    {
      "inputs": [
        {
          "internalType": "uint256",
          "name": "_loanId",
          "type": "uint256"
        }
      ],
      "name": "claimCollateral",
      "outputs": [],
      "stateMutability": "nonpayable",
      "type": "function"
    }
  ],
  "bytecode": "0x6080604052600160005534801561001557600080fd5b5061168d806100256000396000f3fe6080604052600436106100555760003560e01c8063846b909a1461005a57806387c5145914610076578063aa452fa6146100a1578063ab7b1c89146100d1578063c49785b4146100ed578063e1ec3c6814610116575b600080fd5b610074600480360381019061006f9190610c9d565b61015b565b005b34801561008257600080fd5b5061008b610390565b6040516100989190610cd9565b60405180910390f35b6100bb60048036038101906100b69190610cf4565b610396565b6040516100c89190610cd9565b60405180910390f35b6100eb60048036038101906100e69190610c9d565b61060b565b005b3480156100f957600080fd5b50610114600480360381019061010f9190610c9d565b610954565b005b34801561012257600080fd5b5061013d60048036038101906101389190610c9d565b610bc7565b60405161015299989796959493929190610dec565b60405180910390f35b60006001600083815260200190815260200160002090506000600381111561018657610185610d75565b5b8160080160009054906101000a900460ff1660038111156101aa576101a9610d75565b5b146101ea576040517f08c379a00000000000000000000000000000000000000000000000000000000081526004016101e190610ed6565b60405180910390fd5b80600301543414610230576040517f08c379a000000000000000000000000000000000000000000000000000000000815260040161022790610f68565b60405180910390fd5b60008160010160009054906101000a900473ffffffffffffffffffffffffffffffffffffffff1673ffffffffffffffffffffffffffffffffffffffff16826003015460405161027e90610fb9565b60006040518083038185875af1925050503d80600081146102bb576040519150601f19603f3d011682016040523d82523d6000602084013e6102c0565b606091505b5050905080610304576040517f08c379a00000000000000000000000000000000000000000000000000000000081526004016102fb90611040565b60405180910390fd5b338260020160006101000a81548173ffffffffffffffffffffffffffffffffffffffff021916908373ffffffffffffffffffffffffffffffffffffffff16021790555062093a8042610356919061108f565b826007018190555060018260080160006101000a81548160ff0219169083600381111561038657610385610d75565b5b0217905550505050565b60005481565b60008234116103da576040517f08c379a00000000000000000000000000000000000000000000000000000000081526004016103d190611135565b60405180910390fd5b6000821180156103eb575060648211155b61042a576040517f08c379a0000000000000000000000000000000000000000000000000000000008152600401610421906111a1565b60405180910390fd5b60006064838561043a91906111c1565b6104449190611232565b905060008185610454919061108f565b905060405180610120016040528060005481526020013373ffffffffffffffffffffffffffffffffffffffff168152602001600073ffffffffffffffffffffffffffffffffffffffff16815260200186815260200134815260200185815260200182815260200160008152602001600060038111156104d6576104d5610d75565b5b81525060016000805481526020019081526020016000206000820151816000015560208201518160010160006101000a81548173ffffffffffffffffffffffffffffffffffffffff021916908373ffffffffffffffffffffffffffffffffffffffff16021790555060408201518160020160006101000a81548173ffffffffffffffffffffffffffffffffffffffff021916908373ffffffffffffffffffffffffffffffffffffffff160217905550606082015181600301556080820151816004015560a0820151816005015560c0820151816006015560e082015181600701556101008201518160080160006101000a81548160ff021916908360038111156105e3576105e2610d75565b5b02179055509050506000808154809291906105fd90611263565b919050559250505092915050565b60006001600083815260200190815260200160002090506001600381111561063657610635610d75565b5b8160080160009054906101000a900460ff16600381111561065a57610659610d75565b5b1461069a576040517f08c379a0000000000000000000000000000000000000000000000000000000008152600401610691906112f7565b60405180910390fd5b8060010160009054906101000a900473ffffffffffffffffffffffffffffffffffffffff1673ffffffffffffffffffffffffffffffffffffffff163373ffffffffffffffffffffffffffffffffffffffff161461072c576040517f08c379a000000000000000000000000000000000000000000000000000000000815260040161072390611363565b60405180910390fd5b8060060154341015610773576040517f08c379a000000000000000000000000000000000000000000000000000000000815260040161076a906113cf565b60405180910390fd5b60008160020160009054906101000a900473ffffffffffffffffffffffffffffffffffffffff1673ffffffffffffffffffffffffffffffffffffffff1682600601546040516107c190610fb9565b60006040518083038185875af1925050503d80600081146107fe576040519150601f19603f3d011682016040523d82523d6000602084013e610803565b606091505b5050905080610847576040517f08c379a000000000000000000000000000000000000000000000000000000000815260040161083e90611461565b60405180910390fd5b60008260040154905060008360010160009054906101000a900473ffffffffffffffffffffffffffffffffffffffff1673ffffffffffffffffffffffffffffffffffffffff168260405161089a90610fb9565b60006040518083038185875af1925050503d80600081146108d7576040519150601f19603f3d011682016040523d82523d6000602084013e6108dc565b606091505b5050905080610920576040517f08c379a0000000000000000000000000000000000000000000000000000000008152600401610917906114cd565b60405180910390fd5b60028460080160006101000a81548160ff0219169083600381111561094857610947610d75565b5b02179055505050505050565b60006001600083815260200190815260200160002090506001600381111561097f5761097e610d75565b5b8160080160009054906101000a900460ff1660038111156109a3576109a2610d75565b5b146109e3576040517f08c379a00000000000000000000000000000000000000000000000000000000081526004016109da906112f7565b60405180910390fd5b8060020160009054906101000a900473ffffffffffffffffffffffffffffffffffffffff1673ffffffffffffffffffffffffffffffffffffffff163373ffffffffffffffffffffffffffffffffffffffff1614610a75576040517f08c379a0000000000000000000000000000000000000000000000000000000008152600401610a6c9061155f565b60405180910390fd5b80600701544211610abb576040517f08c379a0000000000000000000000000000000000000000000000000000000008152600401610ab2906115cb565b60405180910390fd5b60008160040154905060008260020160009054906101000a900473ffffffffffffffffffffffffffffffffffffffff1673ffffffffffffffffffffffffffffffffffffffff1682604051610b0e90610fb9565b60006040518083038185875af1925050503d8060008114610b4b576040519150601f19603f3d011682016040523d82523d6000602084013e610b50565b606091505b5050905080610b94576040517f08c379a0000000000000000000000000000000000000000000000000000000008152600401610b8b90611637565b60405180910390fd5b60038360080160006101000a81548160ff02191690836003811115610bbc57610bbb610d75565b5b021790555050505050565b60016020528060005260406000206000915090508060000154908060010160009054906101000a900473ffffffffffffffffffffffffffffffffffffffff16908060020160009054906101000a900473ffffffffffffffffffffffffffffffffffffffff16908060030154908060040154908060050154908060060154908060070154908060080160009054906101000a900460ff16905089565b600080fd5b6000819050919050565b610c7a81610c67565b8114610c8557600080fd5b50565b600081359050610c9781610c71565b92915050565b600060208284031215610cb357610cb2610c62565b5b6000610cc184828501610c88565b91505092915050565b610cd381610c67565b82525050565b6000602082019050610cee6000830184610cca565b92915050565b60008060408385031215610d0b57610d0a610c62565b5b6000610d1985828601610c88565b9250506020610d2a85828601610c88565b9150509250929050565b600073ffffffffffffffffffffffffffffffffffffffff82169050919050565b6000610d5f82610d34565b9050919050565b610d6f81610d54565b82525050565b7f4e487b7100000000000000000000000000000000000000000000000000000000600052602160045260246000fd5b60048110610db557610db4610d75565b5b50565b6000819050610dc682610da4565b919050565b6000610dd682610db8565b9050919050565b610de681610dcb565b82525050565b600061012082019050610e02600083018c610cca565b610e0f602083018b610d66565b610e1c604083018a610d66565b610e296060830189610cca565b610e366080830188610cca565b610e4360a0830187610cca565b610e5060c0830186610cca565b610e5d60e0830185610cca565b610e6b610100830184610ddd565b9a9950505050505050505050565b600082825260208201905092915050565b7f4c6f616e206973206e6f742070656e64696e672066756e64696e672e00000000600082015250565b6000610ec0601c83610e79565b9150610ecb82610e8a565b602082019050919050565b60006020820190508181036000830152610eef81610eb3565b9050919050565b7f4d7573742073656e642065786163746c7920746865207072696e636970616c2060008201527f616d6f756e7420746f2066756e642e0000000000000000000000000000000000602082015250565b6000610f52602f83610e79565b9150610f5d82610ef6565b604082019050919050565b60006020820190508181036000830152610f8181610f45565b9050919050565b600081905092915050565b50565b6000610fa3600083610f88565b9150610fae82610f93565b600082019050919050565b6000610fc482610f96565b9150819050919050565b7f5072696e636970616c207472616e7366657220746f20626f72726f776572206660008201527f61696c65642e0000000000000000000000000000000000000000000000000000602082015250565b600061102a602683610e79565b915061103582610fce565b604082019050919050565b600060208201905081810360008301526110598161101d565b9050919050565b7f4e487b7100000000000000000000000000000000000000000000000000000000600052601160045260246000fd5b600061109a82610c67565b91506110a583610c67565b92508282019050808211156110bd576110bc611060565b5b92915050565b7f436f6c6c61746572616c206d7573742065786365656420746865207072696e6360008201527f6970616c20616d6f756e742e0000000000000000000000000000000000000000602082015250565b600061111f602c83610e79565b915061112a826110c3565b604082019050919050565b6000602082019050818103600083015261114e81611112565b9050919050565b7f496e76616c696420696e74657265737420726174652028302d31303025292e00600082015250565b600061118b601f83610e79565b915061119682611155565b602082019050919050565b600060208201905081810360008301526111ba8161117e565b9050919050565b60006111cc82610c67565b91506111d783610c67565b92508282026111e581610c67565b915082820484148315176111fc576111fb611060565b5b5092915050565b7f4e487b7100000000000000000000000000000000000000000000000000000000600052601260045260246000fd5b600061123d82610c67565b915061124883610c67565b92508261125857611257611203565b5b828204905092915050565b600061126e82610c67565b91507fffffffffffffffffffffffffffffffffffffffffffffffffffffffffffffffff82036112a05761129f611060565b5b600182019050919050565b7f4c6f616e206973206e6f74206163746976652e00000000000000000000000000600082015250565b60006112e1601383610e79565b91506112ec826112ab565b602082019050919050565b60006020820190508181036000830152611310816112d4565b9050919050565b7f4f6e6c792074686520626f72726f7765722063616e2072657061792e00000000600082015250565b600061134d601c83610e79565b915061135882611317565b602082019050919050565b6000602082019050818103600083015261137c81611340565b9050919050565b7f496e73756666696369656e742072657061796d656e7420616d6f756e742e0000600082015250565b60006113b9601e83610e79565b91506113c482611383565b602082019050919050565b600060208201905081810360008301526113e8816113ac565b9050919050565b7f52657061796d656e74207472616e7366657220746f206c656e6465722066616960008201527f6c65642e00000000000000000000000000000000000000000000000000000000602082015250565b600061144b602483610e79565b9150611456826113ef565b604082019050919050565b6000602082019050818103600083015261147a8161143e565b9050919050565b7f436f6c6c61746572616c2072657475726e206661696c65642e00000000000000600082015250565b60006114b7601983610e79565b91506114c282611481565b602082019050919050565b600060208201905081810360008301526114e6816114aa565b9050919050565b7f4f6e6c7920746865206c656e6465722063616e20636c61696d20636f6c6c617460008201527f6572616c2e000000000000000000000000000000000000000000000000000000602082015250565b6000611549602583610e79565b9150611554826114ed565b604082019050919050565b600060208201905081810360008301526115788161153c565b9050919050565b7f4c6f616e207465726d20686173206e6f742079657420657870697265642e0000600082015250565b60006115b5601e83610e79565b91506115c08261157f565b602082019050919050565b600060208201905081810360008301526115e4816115a8565b9050919050565b7f436f6c6c61746572616c207472616e73666572206661696c65642e0000000000600082015250565b6000611621601b83610e79565b915061162c826115eb565b602082019050919050565b6000602082019050818103600083015261165081611614565b905091905056fea2646970667358221220e1255ac2263d82f09c867639d9fcd1045e01d230f5cd3a0f90d6d2273f71f4e664736f6c63430008130033",
  "immutableReferences": {},
  "source": "// SPDX-License-Identifier: MIT\r\npragma solidity ^0.8.0;\r\n\r\ncontract P2PLoan {\r\n    enum LoanStatus { Pending, Active, Repaid, Defaulted }\r\n\r\n    struct Loan {\r\n        uint id;\r\n        address payable borrower;\r\n        address payable lender;\r\n        uint principal;\r\n        uint collateralAmount;\r\n        uint interestRate;\r\n        uint totalRepayment;\r\n        uint termEnd;\r\n        LoanStatus status;\r\n    }\r\n\r\n    uint public nextLoanId = 1;\r\n    mapping(uint => Loan) public loans;\r\n    uint private constant LOAN_TERM = 7 days; \r\n\r\n    function requestLoan(\r\n        uint _principal,\r\n        uint _interestRate\r\n    ) public payable returns (uint) {\r\n        require(msg.value > _principal, \"Collateral must exceed the principal amount.\");\r\n        require(_interestRate > 0 && _interestRate <= 100, \"Invalid interest rate (0-100%).\");\r\n        \r\n        uint totalInterest = (_principal * _interestRate) / 100;\r\n        uint totalRepayment = _principal + totalInterest;\r\n\r\n        loans[nextLoanId] = Loan({\r\n            id: nextLoanId,\r\n            borrower: payable(msg.sender),\r\n            lender: payable(address(0)),\r\n            principal: _principal,\r\n            collateralAmount: msg.value,\r\n            interestRate: _interestRate,\r\n            totalRepayment: totalRepayment,\r\n            termEnd: 0, \r\n            status: LoanStatus.Pending\r\n        });\r\n        return nextLoanId++;\r\n    }\r\n\r\n    function fundLoan(uint _loanId) public payable {\r\n        Loan storage loan = loans[_loanId];\r\n        require(loan.status == LoanStatus.Pending, \"Loan is not pending funding.\");\r\n        require(msg.value == loan.principal, \"Must send exactly the principal amount to fund.\");\r\n\r\n        (bool successBorrower, ) = loan.borrower.call{value: loan.principal}(\"\");\r\n        require(successBorrower, \"Principal transfer to borrower failed.\");\r\n\r\n        loan.lender = payable(msg.sender);\r\n        loan.termEnd = block.timestamp + LOAN_TERM;\r\n        loan.status = LoanStatus.Active;\r\n    }\r\n    \r\n    function repayLoan(uint _loanId) public payable {\r\n        Loan storage loan = loans[_loanId];\r\n        require(loan.status == LoanStatus.Active, \"Loan is not active.\");\r\n        require(msg.sender == loan.borrower, \"Only the borrower can repay.\");\r\n        require(msg.value >= loan.totalRepayment, \"Insufficient repayment amount.\");\r\n\r\n        (bool successLender, ) = loan.lender.call{value: loan.totalRepayment}(\"\");\r\n        require(successLender, \"Repayment transfer to lender failed.\");\r\n\r\n        uint excess = loan.collateralAmount;\r\n        (bool successBorrower, ) = loan.borrower.call{value: excess}(\"\");\r\n        require(successBorrower, \"Collateral return failed.\");\r\n        \r\n        loan.status = LoanStatus.Repaid;\r\n    }\r\n\r\n    function claimCollateral(uint _loanId) public {\r\n        Loan storage loan = loans[_loanId];\r\n        require(loan.status == LoanStatus.Active, \"Loan is not active.\");\r\n        require(msg.sender == loan.lender, \"Only the lender can claim collateral.\");\r\n        require(block.timestamp > loan.termEnd, \"Loan term has not yet expired.\");\r\n\r\n        uint collateral = loan.collateralAmount;\r\n        (bool success, ) = loan.lender.call{value: collateral}(\"\");\r\n        require(success, \"Collateral transfer failed.\");\r\n\r\n        loan.status = LoanStatus.Defaulted;\r\n    }\r\n}",
  "sourcePath": "C:\\Users\\hp\\Downloads\\Assignment_3\\contracts\\P2PLoan.sol",
  "compiler": {
    "name": "solc",
    "version": "0.8.19+commit.7dd6d404.Emscripten.clang"
  },
  "schemaVersion": "3.4.16",
  "updatedAt": "2025-11-21T10:55:38.615Z",
  "networkType": "ethereum",
  "devdoc": {
    "kind": "dev",
    "methods": {},
    "version": 1
  },
  "userdoc": {
    "kind": "user",
    "methods": {},
    "version": 1
  }
}